:020000040800F2
:100000006806002045010008F71F0008391C000899
:10001000F51F00088D0500082529000800000000D4
:100020000000000000000000000000005B2300084A
:100030008F05000800000000592300088D230008E8
:100040005F0100085F0100085F0100085F01000810
:100050005F0100085F010008910500085F010008CA
:100060005F0100085F0100085F0100085F010008F0
:100070005F0100085F0100085F0100085F010008E0
:100080005F0100085F0100085F0100085F010008D0
:100090005F0100085F0100085F0100089705000884
:1000A0005F0100085F0100085F0100085F010008B0
:1000B0005F010008F12300085F0100085F010008EC
:1000C0005F0100085F0100085F0100085F01000890
:1000D0005F010008012900080D29000819290008FE
:1000E0005F0100085F0100085F0100085F01000870
:1000F0005F0100085F0100085F0100085F01000860
:100100005F0100085F0100085F0100085F0100084F
:100110005F0100085F0100085F0100085F0100083F
:100120005F0100085F0100085F0100085F0100082F
:10013000DFF80CD000F018FA00480047712B0008D7
:10014000680600200648804706480047FEE7FEE7AD
:10015000FEE7FEE7FEE7FEE7FEE7FEE7FEE7FEE777
:10016000EF23000831010008202A04DB203A21FA9D
:1001700002F00021704721FA02F3D040C2F12002C0
:100180009140084319467047D2B201E000F8012BB4
:10019000491EFBD270470022F6E710B513460A4607
:1001A00004461946FFF7F0FF204610BD2DE9FE4F2B
:1001B000804681EA0300C00F0C46009021F0004108
:1001C00023F00045B8EB0200A94105D24046214684
:1001D00090461C460B46024623F00040104347D091
:1001E000270DC7F30A00C3F30A510290401A019089
:1001F00040286BDAC3F3130040F4801B009892464A
:1002000020B10023D2EB030A63EB0B0B0198594694
:10021000C0F14002504600F028F906460D4650460F
:100220005946019A00F030F910EB080061410024B2
:1002300087EA115284EAE7731A4340D0009A62B306
:10024000019A012A4FEA075215DC001B61EB0201FB
:100250004FF0004202EA0752CDE90042001C41F58E
:10026000801132462B4600F030F903B0BDE8F08F24
:1002700040462146F9E7001B61EB0201001C41F5F5
:10028000801300185B412018A2F5001747EB03010B
:1002900040EAD570B6196D4111E06D084FEA360697
:1002A00045EAC0754FEA0752001B61EB0201001CD2
:1002B00041F5801149084FEA30000019514132469A
:1002C0002B4603B0BDE8F04F00F0F0B800980122D3
:1002D00040000023D0EB020263EBE073009821465C
:1002E0004FEAE074B8EB000061EB0401E9E783F04A
:1002F00000435BE781F0004158E72DE9FE4F81EABA
:10030000030404F0004421F0004100944FF0000B7E
:1003100023F0004350EA01045ED052EA03045BD0AC
:10032000C3F30A54C1F30A552C44A4F2F3340194E4
:10033000A0FB0254C1F3130141F48011C3F3130372
:1003400043F4801301FB024400FB034E840A970A26
:1003500044EA815447EA8357A4FB076802958D0A53
:1003600005FB07854FEA932C04FB0C542705029DDF
:100370004FEA065847EA1637B5EB08056EEB070C4F
:10038000870E920E47EA811742EA8312A7FB020109
:10039000B6EB0B0164EB00042B0D43EA0C335E1843
:1003A00044EB1C50DA465146E7FB0201C5F3130447
:1003B0004FEA0B3343EA14534FEA0432019C43EAF9
:1003C0000603A4F10C040294009CCDE900B400F0F3
:1003D0007CF803B0BDE8F08F00200146F9E70EB5C8
:1003E000C10F80EAE0700844CA07002140F233439D
:1003F0008DE80E000A460B4600F067F803B000BD1A
:1004000070B5C1F30A5201F000450024C1F3130195
:1004100040F2FF3341F480119A4201DA002070BDAE
:1004200040F233439A42A2F2334203DC5242FFF7D6
:100430009BFE00E090402C43F1D0404270BD30B5AF
:100440000B46014600202022012409E021FA02F592
:100450009D4205D303FA02F5491B04FA02F528442C
:10046000151EA2F10102F1DC30BD202A04DB203A86
:1004700000FA02F1002070479140C2F1200320FAF7
:1004800003F3194390407047202A06DBCB17203A2C
:1004900041FA02F043EAE07306E041FA02F3D04089
:1004A000C2F12002914008431946704710B5141E4E
:1004B00073F1000408DA401C41F1000192185B411D
:1004C0001A4301D120F0010010BD2DE9F04D9246F4
:1004D0009B4611B1B1FA81F202E0B0FA80F220320B
:1004E0009046FFF7C2FF04460F4640EA0A0041EA81
:1004F0000B0153465A46084313D0114653EA0100F4
:1005000019D0C8F140025046FFF72EFE05460E46B0
:10051000504659464246FFF7A8FF084305D0012040
:1005200004E020463946BDE8F08D0020054346EA48
:10053000E0762C4337430A986305E40AA0EB0800F1
:100540000022FD0A44EA47540A3002D50020014641
:10055000E9E7010510196941DDE90845001969411C
:10056000BDE8F04DA2E70000064C074D06E0E0684C
:1005700040F0010394E8070098471034AC42F6D3EA
:10058000FFF7DAFD4435000864350008FEE77047E0
:10059000012000F0E9B810B54FF4807000F0E4F8E5
:1005A000BDE810404FF4007000F0DEB872B6FEE710
:1005B00010B590F821100022022905D00421816392
:1005C00080F82020012010BD01680B6823F00E0385
:1005D0000B6001680B6823F001030B6090F840305A
:1005E000C46B012101FA03F3636080F8211080F8E5
:1005F0002020104610BD00002DE9F05F90F821107A
:100600000024022903D004218163012485E00168CC
:100610000A6822F00E020A6001680A6822F00102EC
:100620000A603F4E3E4FB215DFF8F4C0DFF8F0909D
:10063000DFF8ECA0DFF8E8B0DFF8E4E00168783F2D
:1006400013011502ACF1640CA9F15009AAF13C0A9E
:10065000ABF1280BAEF1140E4FF48018B14227D93C
:10066000B9420ED0614512D049451DD0514518D030
:10067000594518D0714501D1424615E0294EB14285
:1006800001D1012210E0274E1436B14201D11022CF
:100690000AE0244E2836B14206D0224A3C3291422A
:1006A00001D11A4600E02A461E49091F0A602BE0C4
:1006B000B94213D0614517D0494522D051451DD0CC
:1006C00059451DD0714501D142461AE0B14202D1CF
:1006D0004FF0807215E0134EB14201D1012210E0BB
:1006E000104E1436B14201D110220AE00D4E2836C8
:1006F000B14206D00B4A3C32914201D11A4600E089
:100700002A46074980394A60012180F821100021DA
:1007100080F82010416B01B188472046BDE8F09F6A
:10072000800002400804024070B5044600F036F92B
:100730000546601C02D004480078044400F02EF9FD
:10074000401BA042FAD370BD88000020012805D0CC
:10075000B0F5807F02D0B0F5007F02D1014800F0F3
:10076000D1BC704700010020044910B50A6802425C
:1007700002D00860FFF7EAFF10BD0000140401403A
:100780002DE9F84FDFF8C8910024A9F1040B2346A6
:100790000F2709F1040AABF1040ED1E00125A540B1
:1007A00006EA0502AA4276D1DFF8A8C14E68A6EB98
:1007B0000C0866452BD00DDC032E34D005DC36B397
:1007C000012E19D0022E2FD11BE0112E16D0122E81
:1007D0002AD119E0B8F5881F19D006DCB8F5803F9A
:1007E00015D0B8F5801F1FD111E0B8F5001F0ED04D
:1007F000B8F5041F18D10AE0CB6815E0CB681B1DC3
:1008000012E0CB6808330FE0CB680C330CE08B6848
:100810002BB1012B4FF0080303D0456104E0042302
:1008200002E0056100E00023FF2A01D8064601E04E
:1008300000F104064FEA840501D9A5F12005D6F898
:10084000008007FA05FC28EA0C0803FA05F548EAD7
:100850000508C6F800804D68ED0070D53E4DAE69C4
:1008600046F00106AE61AD6924F0030605F001050E
:1008700000953A4D06EB050CDCF80850A607360F3C
:1008800007FA06F825EA0805DFF8D480404503D1C9
:100890004FF0000825E052E0DFF8C880404502D163
:1008A0004FF001081DE0DFF8C080404502D14FF055
:1008B000020816E0DFF8B480404502D14FF003088B
:1008C0000FE0DFF8AC80404502D14FF0040808E0AB
:1008D000DFF8A080404502D14FF0050801E04FF05D
:1008E000060808FA06F848EA0508CCF808804D68BA
:1008F000D9F80060ED024D4601D5164300E096435D
:100900002E604D68DAF80060AD02554601D51643F9
:1009100000E096432E604D68DBF80060AD035D4655
:1009200001D5164300E096432E604D68DEF8006066
:10093000ED03754601D5164300E096432E60641C16
:100940000A681646E2407FF429AFBDE8F88F000040
:100950000804014000001110001002400000014096
:1009600000080140000C014000100140001401404B
:1009700000180140001C01408068084000D00120A0
:100980007047C26821EA02030A4043EA024101615A
:1009900070470AB1016170470904FBE701488068AC
:1009A00070470000880000200248816802781144E6
:1009B0008160704788000020074810B5016841F049
:1009C00010010160032000F075F8002000F006F827
:1009D00000F024F8002010BD0020024070B50D4D3D
:1009E00004464FF47A712878B1FBF0F00A4909689F
:1009F000B1FBF0F000F0DCFA48B9102C07D200226D
:100A00002146501E00F036F800206C6070BD0120B9
:100A100070BD000088000020940000200C4808B53C
:100A2000816941F001018161816901F00101009159
:100A3000C16941F08051C161C06900F080500090EF
:100A40000448416821F0E06141F00071416008BD57
:100A50000010024000000140002809DB00F01F02E6
:100A6000012191404009800000F1E020C0F8001110
:100A700070470000F0B40E4B1B680C46C3F3022312
:100A8000C3F10705042D00D90425191D072901D23A
:100A9000002300E0DB1E012606FA05F1491E214075
:100AA00099409E40761E16403143F0BC01F064BF71
:100AB0000CED00E0064900F0070208684FF6FF035E
:100AC000184040EA0220034A1043086070470000C3
:100AD0000CED00E00000FA052DE9F0470F46050097
:100AE00061D0434E306800F00700B84209D2306848
:100AF00020F0070038433060306800F00700B8424B
:100B000051D128683B4C810712D5400703D5606856
:100B100040F4E06060602878000703D5606840F426
:100B2000605060606068A96820F0F0000843606071
:100B30002878C00728D06868012810D021680228CA
:100B400010D0890700292EDA616821F003010143E2
:100B50006160FFF723FF804641F288390DE021688C
:100B60008903EFE78901EDE7FFF718FFA0EB080124
:100B7000494502D90320BDE8F0876068696800F044
:100B80000C00B0EB810FEFD1306800F00700B842E5
:100B90000BD9306820F0070038433060306800F02F
:100BA0000700B84201D00120E5E72878400705D5C5
:100BB0006068E96820F4E060084360602878000716
:100BC00006D56068296920F4605040EAC100606081
:100BD00000F038F86168084AC1F30311515CC8405D
:100BE0000649086006480068FFF7F8FE0020C2E7E3
:100BF00000200240001002402A3500089400002026
:100C00008C0000200448054900684968044AC1F383
:100C10000221515CC840704794000020001002403F
:100C20003A3500080448054900684968044AC1F398
:100C3000C221515CC840704794000020001002405F
:100C40003A3500080E4A51680E4801F00C03042B97
:100C500011D0082B0FD10C48C1F38343C903C05CEA
:100C60000AD55168084AC1F34041921E515C054AB9
:100C70005043B0FBF1F0704704494843704700000F
:100C80000010024000127A001A35000800093D00E9
:100C90002DE9F84F040070D02078C04DC00749D02E
:100CA0006868C0F38100012807D06868C0F381003C
:100CB000022809D16868C00306D52868800339D5A1
:100CC00060680028E7D035E06068B0F5803F0BD061
:100CD00010B1B0F5A02F11D0286820F48030286022
:100CE000286820F4802002E0286840F480302860E2
:100CF000606890B1FFF752FE06460AE0286840F4AB
:100D000080202860F0E700BFFFF748FE801B6428C2
:100D100073D828688003F7D50CE0FFF73FFE06463E
:100D200005E000BFFFF73AFE801B6428F0D8286872
:100D30008003F7D420789A4E80074FF001094FF0D6
:100D4000000839D5686810F00C0F07D06868C0F348
:100D50008100022809D16868C00306D4286880078A
:100D600014D52069012808D110E02069B0B1C6F877
:100D70000090FFF713FE074605E00AE1FFF70EFEBD
:100D8000C01B0228C4D828688007F7D52868616985
:100D900020F0F80040EAC10028600DE0C6F80080AD
:100DA000FFF7FCFD074604E0FFF7F8FDC01B022833
:100DB00023D828688007F7D4207800072CD57948F5
:100DC000A169D9B1C0F80090FFF7E8FD074604E03B
:100DD000FFF7E4FDC01B02280FD8686A8007F7D52B
:100DE00071484FF4FA510068B0FBF1F0009000BF79
:100DF0000098411E0091FAD20EE080E0C0F8008019
:100E0000FFF7CCFD074604E0FFF7C8FDC01B022832
:100E100075D8686A8007F7D42078400760D5E869FC
:100E20000027C00008D4E86940F08050E861E86914
:100E3000012700F0805000905C480168C90513D478
:100E40000168834641F480710160FFF7A7FD824687
:100E500006E000BFFFF7A2FDA0EB0A0064284ED811
:100E6000DBF80000C005F5D5E06801280AD008B11C
:100E7000052813D0286A20F001002862286A20F093
:100E8000040002E0286A40F001002862E06841F2B4
:100E9000883B98B1FFF782FD82460BE0286A40F05C
:100EA00004002862EEE700BFFFF778FDA0EB0A011F
:100EB00059455AD8286A8007F6D50CE0FFF76EFD31
:100EC000824605E0FFF76AFDA0EB0A0159454CD8C0
:100ED000286A8007F6D41FB1E86920F08050E861E5
:100EE000E06988B36968C1F38101022944D002280E
:100EF000C6F8608004D0FFF751FD044638E034E0C6
:100F0000FFF74CFD074604E0FFF748FDC01B022831
:100F10002BD828688001F7D4206AB0F5803F05D12E
:100F20006868A16820F4003008436860D4E90801CB
:100F30000843696821F4741108436860C6F860903A
:100F4000FFF72CFD044606E025E000BFFFF726FD75
:100F5000001B022809D828688001F7D51BE000BFD4
:100F6000FFF71CFD001B022802D90320BDE8F88F03
:100F700028688001F4D40EE00128F7D06868226A5E
:100F800000F48031914204D1616A00F4701088420B
:100F900001D00120EAE70020E8E70000001002404D
:100FA0000000424280044242940000200070004051
:100FB00010B5401EB0F1807F01D3012010BD4FF06D
:100FC000E02460610F21601701F0D6FC0020A061D1
:100FD00007202061002010BD7047704770B590F861
:100FE0003C20012A2CD0012480F83C40022280F8C9
:100FF0003D2003685A689D6822F070060A683243F3
:101000005A60104B02689A420ED00F4B9A420BD096
:10101000B2F1804F08D00D4B9A4205D00C4B9A424A
:1010200002D00C4B9A4204D1496825F08003194341
:10103000916080F83D40002180F83C10084670BD6A
:10104000022070BD002C014000340140000400402B
:1010500000080040000C004010B5040003D094F8D4
:101060003D0010B107E0012010BD002084F83C00D5
:10107000204600F01FF8022084F83D00211D206862
:1010800001F0BCF9012084F8460084F83E0084F8A1
:101090003F0084F8400084F8410084F8420084F85E
:1010A000430084F8440084F8450084F83D000020A3
:1010B00010BD000008B501681048B1F1804F14D090
:1010C0000F4A914219D1C16941F00201C161C06961
:1010D000002200F00200009011461D20FFF7CAFC1C
:1010E000BDE808401D20FFF7B7BCC16941F0010110
:1010F000C161C06900F00100009008BD001002400D
:101100000004004090F83D10012901D001207047F3
:10111000022180F83D100168CA6842F00102CA60ED
:1011200000680E4988420ED00D4988420BD0B0F1BC
:10113000804F08D00B49884205D00B49884202D025
:101140000A49884204D1816801F00701062903D0C9
:10115000016841F00101016000207047002C01404E
:10116000003401400004004000080040000C004032
:101170000168CA6822F00102CA6001680A6A41F285
:1011800011131A4207D10A6A9B101A4203D10A6846
:1011900022F001020A60012180F83D100020704712
:1011A00070B5044690F83C000025012817D00126B0
:1011B00084F83C60022084F83D002068826822F0B8
:1011C000770222F47F4282600868502838D00DDC14
:1011D00020284FD005DC90B3102811D14AE002201E
:1011E00070BD302846D040280AD13BE060282FD07F
:1011F00070280DD0B0F5805F03D0B0F5005F12D03D
:10120000012584F83D60002084F83C00284670BD2C
:10121000CB68D1E90121206801F036F920688168A6
:1012200041F0770109E0CB68D1E90121206801F0A4
:101230002BF92068816841F480418160E1E719E081
:10124000CA684968206801F0F3F95021206806E077
:10125000CA684968206801F0FCF96021206801F043
:101260001DF9CEE7CA684968206801F0E1F940211C
:101270002068F4E7226801461046F0E7704770B531
:101280000446006801694FF00005C943890715D479
:10129000C168C943890711D4E91E01610120207783
:1012A000206880698007204602D0FFF7E7FF04E04E
:1012B00000F001F9204600F0C1F9257720680169A6
:1012C000C943490717D4C168C943490713D46FF00C
:1012D00004010161022020772068806910F4407FBA
:1012E000204602D0FFF7CAFF04E000F0E4F82046F1
:1012F00000F0A4F9257720680169C943090716D4CD
:10130000C168C943090712D46FF0080101610420C4
:1013100020772068C0698007204602D0FFF7AEFF23
:1013200004E000F0C8F8204600F088F9257720682E
:101330000169C943C90617D4C168C943C90613D492
:101340006FF010010161082020772068C06910F457
:10135000407F204602D0FFF791FF04E000F0ABF899
:10136000204600F06BF9257720680169C943C90759
:1013700008D1C168C943C90704D1891E016120464B
:1013800000F05EF920680169C943090609D4C16803
:10139000C943090605D46FF0800101612046FFF7BB
:1013A0001BFE20680169C943490609D4C168C943C5
:1013B000490605D46FF040010161204600F086F92E
:1013C00020680169C94389060BD4C168C9438906ED
:1013D00007D46FF0200101612046BDE87040FFF79F
:1013E000FCBD70BD10B586B0002100910191029145
:1013F00003910068B0F1804F29D11648816941F00E
:1014000004018161816901F004010491816941F065
:10141000080181618069022400F0080000940194B1
:10142000CDE9034069460C48FFF7AAF96002CDE90F
:101430000004694609480394FFF7A2F90848416887
:1014400021F4407141F0E06141F40071416006B067
:1014500010BD00000010024000080140000C0140D7
:101460000000014070B5044690F83C0000250128BA
:101470000FD0012084F83C006AB1042A0FD0082A5A
:1014800011D00C2A13D00125002084F83C002846F6
:1014900070BD022070BD206801F008F8F4E72068F4
:1014A00001F034F8F0E7206801F066F8ECE7206816
:1014B00001F096F8E8E7704710B5040003D094F8FF
:1014C0003D0010B107E0012010BD002084F83C0071
:1014D000204600F01EF8022084F83D00211D2068FF
:1014E00000F08CFF012084F8460084F83E0084F868
:1014F0003F0084F8400084F8410084F8420084F8FA
:10150000430084F8440084F8450084F83D0000203E
:1015100010BD704770B5044690F83C0000260D469B
:1015200001280FD0012084F83C006AB1042A1DD0A4
:10153000082A2FD00C2A3FD00126002084F83C0036
:10154000304670BD022070BD206800F0AFFF2068FB
:10155000816941F0080181612068816921F00401FD
:101560008161206881692A69114311E0206800F0D7
:10157000CDFF2068816941F4006181612068816943
:1015800021F480618161206881692A6941EA022130
:101590008161D2E7206800F0EFFF2068C16941F067
:1015A0000801C1612068C16921F00401C16120689E
:1015B000C1692A69114311E0206801F011F820681F
:1015C000C16941F40061C1612068C16921F4806191
:1015D000C1612068C1692A6941EA0221C161ACE7A1
:1015E00010B5040003D094F83D0010B107E00120CD
:1015F00010BD002084F83C00204600F01EF80220B8
:1016000084F83D00211D206800F0F8FE012084F8D8
:10161000460084F83E0084F83F0084F8400084F8D7
:10162000410084F8420084F8430084F8440084F8C0
:10163000450084F83D00002010BD70477047000051
:1016400070B51E49884238D10846FFF791FD012147
:101650001B48FFF791F900251A4C01280CD120787E
:10166000401CC0B220700A2800D9257003232278BC
:101670000121022000F0EEFD134E4FF48071304640
:10168000FFF77AF930B90122032311461846E260C8
:1016900000F0E0FD4FF400713046FFF76DF90028CF
:1016A0000BD1A0780323401CC2B2A270A560BDE894
:1016B00070400121084600F0EEBD70BD0001002021
:1016C000000801407800002000100140704770477A
:1016D00070470000F8B5016804460868CA684B699D
:1016E00010F00F0F4FF0000559D003F0010602F47F
:1016F0009077374365D0C10705D0D10503D5616C1C
:1017000041F001016164410705D5D90703D0616C3F
:1017100041F002016164810705D5D90703D0616CEE
:1017200041F004016164010707D502F02001314353
:1017300003D0616C41F008016164616C00293AD00A
:10174000800604D5900602D5204600F0C3FF20682D
:101750004069616CC0F38010090700D460B3204673
:1017600000F091FF20684069400621D520681430C0
:1017700050E8001F21F0400140E80012002AF5D196
:10178000E06BA8B16D494163E06BFEF735FF0028BF
:1017900011D0E06B416B01B0BDE8F0400847830613
:1017A0000FD593060DD52046BDE8F84000F092BF56
:1017B0002046FFF78DFFF8BD2046FFF789FF6564DF
:1017C000F8BD266B2023012E7CD1C6067AD5D6061D
:1017D00078D508684868009048694FF002064006CE
:1017E00040D5E16B086840680004000CE8D0A28D89
:1017F0008242E5D9E085886920282DD020680C3008
:1018000050E8001F21F4807140E80012002AF5D151
:101810002068143050E8001F21F0010140E8001258
:10182000002AF5D12068143050E8001F21F0400153
:1018300040E80012002AF5D184F842302563206880
:101840000C3050E8001F21F0100140E80012002A7F
:10185000F5D1E06BFEF7ACFE6663A08DE18D401A1A
:1018600081B22AE0A08DE18D401A81B2E08D00287E
:10187000A6D00029A4D022680C3252E8000F20F430
:10188000907042E80007002FF5D12068143050E82E
:10189000002F22F0010240E80027002FF5D184F844
:1018A0004230256320680C3050E8002F22F01002EF
:1018B00040E80023002BF5D166632046FFF707FFC1
:1018C000F8BDFFE705062BD5150629D594F841008C
:1018D0002128F5D1A068B0F5805F01D12069B0B1B1
:1018E000206A411C2162216800784860E08C401E1B
:1018F0000004000CE084E3D12068C16821F080017D
:10190000C1602068C16841F04001C160D8E7206A29
:101910000088C0F308004860206A801C2062E5E768
:101920004006CDD55006CBD5CA68204622F04002ED
:10193000CA6084F8413000F07EF9C1E777260008DC
:1019400070B5040004D094F84100002510B106E001
:10195000012070BD84F84050204600F023F8242078
:1019600084F841002068C16821F40051C16020461C
:1019700000F012FF2068016921F4904101612068A4
:10198000416921F02A0141612068C16841F4005198
:10199000C1606564202084F8410084F842006563DA
:1019A000002070BDF0B585B000240094019402942D
:1019B00003945F4DD0F800C05E48022103225E4BC5
:1019C0000426AC4528D1C56945F48015C561C569B3
:1019D00005F480150495856945F0100585618569D4
:1019E00005F010050495856945F02005856180693D
:1019F000039200F020000490C802CDE9000169467E
:101A00001846FEF7BDFECDE9006469464B480294D6
:101A1000FEF7B6FE05B0F0BD4A4DDFF824E12F1504
:101A2000F44525D1836943F480438361836903F4DA
:101A300080430493836943F00403836180690392C4
:101A400000F0040004906815CDE9000169462846BD
:101A5000FEF796FECDE90074694628460294FEF72B
:101A60008FFE002211462520FFF704F8252028E0EC
:101A7000DFF8D4E0F44527D1C36943F40033C361F0
:101A8000C36903F400330493836943F0040383615F
:101A90008069CDE9006100F00400CDE903206946CA
:101AA0002846FEF76DFE0820CDE900046946284669
:101AB0000294FEF765FE002211462620FEF7DAFFAB
:101AC0002620FEF7C9FFA5E7204DAC45A2D1C56988
:101AD00045F48025C561C56905F4802504958569AF
:101AE00045F0100585618069CDE9007100F01000B6
:101AF000CDE9032069461D461846FEF741FE4FF426
:101B00000060CDE90004694628460294FEF738FEDD
:101B10000F48416821F0300141F0E06141F01001CF
:101B20004160002211462720FEF7A4FF2720C8E7C6
:101B3000005000400010024000100140001401401D
:101B400000380140000801400044004000480040C7
:101B50000000014090F84230202B01D00220704755
:101B600021B11AB10023036300F072BE0120704757
:101B7000084910B588420BD10748407800F0F4F9C5
:101B800005490122BDE81040491C0248FFF7E2BFA9
:101B900010BD000090010020780000202DE9F843DE
:101BA000044690F841001F4616460D46202802D0F4
:101BB0000220BDE8F8837DB176B100206064212069
:101BC00084F84100FEF7EAFEA6848046E684A06819
:101BD000B0F5805F02D003E00120EAE7206910B190
:101BE0002E4600250EE000260CE08021204600F065
:101BF0004AFEA0B9AEB116F8010B21684860E08C2E
:101C0000401EE084E08C43464FF00002009700281D
:101C1000EBD14FF04001204600F035FE30B10320FB
:101C2000C7E735F8020BC0F30800E6E7202084F888
:101C300041000020BDE77047FEE700002DE9F047B6
:101C400086B0002536480095019502950395816977
:101C500041F010018161816901F0100104918169F5
:101C600041F020018161816901F0200104918169C5
:101C700041F004018161816901F0040104918169ED
:101C800041F0080181618069012200F00800DFF85D
:101C900094901702049039464846FEF77AFEDFF822
:101CA00088A04FF49878002241465046FEF771FE16
:101CB0001E480124CDE900400226694602964846A6
:101CC000FEF75EFD4FF4407000901948CDE9010425
:101CD00069461848FEF754FD01AA009782E8700093
:101CE00069464846FEF74CFD01AACDF8008082E81F
:101CF000700069465046FEF743FD0022114606205B
:101D0000FEF7B8FE0620FEF7A7FE002211461720B8
:101D1000FEF7B0FE1720FEF79FFE06B0BDE8F08785
:101D20000010024000080140000C014000001110AA
:101D3000000021100010014010B58EB0002407945F
:101D4000089409940A940B941C2168460C94FEF79D
:101D500022FA25484FF08041C0E900144FF6FF7188
:101D6000C0E9024104618461FFF776F908B1FEF72A
:101D70001DFC4FF48050079007A91B48FFF710FA8D
:101D800008B1FEF713FC1848FFF72AFC08B1FEF76C
:101D90000DFC1548FFF790FB08B1FEF707FC0B940C
:101DA0000BA911480C94FFF719F908B1FEF7FEFBD7
:101DB0006020CDE900040294042269460A48049494
:101DC000FFF7A8FB08B1FEF7F1FB082269460648B9
:101DD0000094FFF747FB08B1FEF7E8FB0248FFF766
:101DE00001FB0EB010BD0000B800002010B586B099
:101DF0000024174800940194029403940494134916
:101E000005940160632141601021816041F61F410A
:101E1000C0E903148461FFF71FF908B1FEF7C6FBA0
:101E20004FF48050009069460948FFF7B9F908B1AE
:101E3000FEF7BCFB049404A905480594FFF7CEF80F
:101E4000002801D0FEF7B2FB06B010BD0004004030
:101E5000000100200C4810B50A4901604FF4E1313F
:101E60004160002181600C22C160C0E904128161DF
:101E7000C161FFF765FD002803D0BDE81040FEF703
:101E800095BB10BD00500040480100200C4810B523
:101E90000A4901604FF4E1314160002181600C2268
:101EA000C160C0E904128161C161FFF749FD0028EA
:101EB00003D0BDE81040FEF779BB10BD00380140EB
:101EC000900100200C4810B50A4901604FF4E1313F
:101ED0004160002181600C22C160C0E9041281616F
:101EE000C161FFF72DFD002803D0BDE81040FEF7CB
:101EF0005DBB10BD00440040D80100200C4810B567
:101F00000A4901604FF4E1314160002181600C22F7
:101F1000C160C0E904128161C161FFF711FD0028B1
:101F200003D0BDE81040FEF741BB10BD00480040A3
:101F300020020020074808490279CA70027A0A7113
:101F4000027B4A70007C8870012104A2042000F00A
:101F5000CEB900009C0000200000002047455444FA
:101F60004154414F4B000000204A30B41478204BBC
:101F7000002154B1012C18D0022C1AD0032C1CD0F3
:101F8000042C1ED0052C20D001E02C2808D0117084
:101F90000D46916043F82150491C0629FADB1EE0EA
:101FA00001211170186030BC704702211170586017
:101FB000F9E7032111709860F5E704211170D860EA
:101FC000F1E7052111701861EDE75B28117008D069
:101FD0000846916043F82100491C0629FADB91600C
:101FE000E1E7586130BCFFF7A5BF0000000000200A
:101FF0009C000020FEE7FEE770B50024002120468B
:1020000000F0E3F80025002000F095F96D1CEDB21A
:10201000802DF8D3641CE4B2082CEFD370BD00000F
:1020200038B50C48816941F008018161806900F090
:1020300008000090FFF702FE074C01221021204605
:10204000FEF7A7FC2046BDE8384001222021FEF71C
:10205000A0BC000000100240000C01402DE9F0413E
:102060000024124E0746802525FA04F23A4020212A
:102070003046FEF78EFC012210213046FEF789FC27
:10208000002210213046FEF784FC641CE4B2082CC8
:10209000EAD3012210213046FEF77BFC3046BDE832
:1020A000F04100221021FEF774BC0000000C01403A
:1020B00010B50B4C012220212046FEF76AFC0122BC
:1020C00010212046FEF765FC002220212046FEF765
:1020D00060FC20460022BDE810401021FEF759BCEC
:1020E000000C014010B5094C002220212046FEF7CB
:1020F00050FC012210212046FEF74BFC2046012215
:10210000BDE810402021FEF744BC0000000C014057
:1021100010B500204FF47A720021491C9142FCD383
:10212000401C9042F8D3FFF77BFFAE2000F0F2F89E
:10213000D52000F0EFF8802000F0ECF8A82000F0A7
:10214000E9F83F2000F0E6F8D32000F0E3F80020A3
:1021500000F0E0F8402000F0DDF8A12000F0DAF80F
:10216000C82000F0D7F8DA2000F0D4F8122000F0F0
:10217000D1F8812000F0CEF8CF2000F0CBF8D920A4
:1021800000F0C8F8F12000F0C5F8DB2000F0C2F83C
:10219000302000F0BFF8A42000F0BCF8A62000F02A
:1021A000B9F88D2000F0B6F8142000F0B3F8AF2095
:1021B00000F0B0F8BDE81040FFF71EBF0246012056
:1021C00000E05043491EFCD2704710B50C4640F069
:1021D000B00000F09FF8102040EA141000F09AF8C8
:1021E00004F00F00BDE8104000F094B82DE9F04174
:1021F0000746CE004000083E801E15464FF0FF38CF
:10220000F1B2C0B2FFF7E1FF1148002400EB051561
:102210002819A0F5805090F8000E00F08CF8641C8E
:10222000E4B2082CF4D308EB4700F1B2C0B2FFF7D8
:10223000CCFF00242819A0F5805090F8080E00F07B
:102240007AF8641CE4B2082CF4D3BDE8F0810000F5
:10225000282F00082DE9F04700241D461646884621
:1022600081460A2713E0291B0A20491EFFF7A6FF13
:10227000B6FBF0F0B0FBF7F107FB110208EB04002E
:10228000C1B248463032FFF7B1FF641CE4B2AC4241
:10229000E9D3BDE8F0872DE9F0471E4614008846D3
:1022A000814604D42B22FFF7A1FF254603E02D220F
:1022B000FFF79CFF654200240A2714E0311B0A2027
:1022C000491EFFF77BFFB5FBF0F0B0FBF7F107FB12
:1022D000110208EB0400401CC1B248463032FFF73F
:1022E00085FF641CE4B2B442E8D3BDE8F0872DE971
:1022F000F04115460E460746002406E03019C1B2EB
:102300003846FFF773FF641CE4B22A5D002AF5D15A
:10231000BDE8F08110B50446FFF7CAFE7820FFF74C
:102320009DFE0020FFF79AFE2046FFF797FEBDE8CE
:102330001040FFF7D7BE10B50446FFF7B9FE78206E
:10234000FFF78CFE4020FFF789FE2046FFF786FE50
:10235000BDE81040FFF7C6BE7047704701B54FF0AB
:10236000FF33012269460248FFF718FC08BD000050
:10237000D801002070B50546002403E0FFF7EEFF0A
:10238000641CA4B2285D0028F8D170BDFEF70CBB18
:1023900030B58FB028216846FDF7FDFE14210AA84C
:1023A000FDF7F9FE01210804CDE900100024029494
:1023B00002250491CDE907504FF4E01009906846DA
:1023C000FEF766FC08B172B6FEE70F20CDE90A05FC
:1023D0004FF48060CDE90C4002210AA80E94FEF76C
:1023E0007BFB002801D072B6FEE70FB030BD70470E
:1023F0000148FEF744BF000000010020F0B502686C
:102400001C4B1D4D1D4E1E4F1E4C4FF0804C9842D4
:1024100009D0A04207D0604505D0A84203D0B04201
:1024200001D0B84204D122F0700E4A6842EA0E028E
:10243000984209D0A04207D0604505D0A84203D0F9
:10244000B04201D0B84203D122F44075CA682A4391
:102450004D6922F080022A4302608A68C2620A68DB
:102460008262984201D0A04201D109690163012131
:102470004161F0BD002C0140000400400008004014
:10248000000C00400034014010B5846842EA032289
:1024900024F47F440A432243826010BD826822F004
:1024A00070020A4342F0070181607047F0B5036A89
:1024B000026A22F00102026242688469124E24F02C
:1024C00073050C682C4323F002058B682B430D4DDC
:1024D000A84201D0B04205D123F00807CB683B43A6
:1024E00023F00403A84201D0B04205D14D6922F483
:1024F000407215438A692A43426084614968416396
:102500000362F0BD002C014000340140F0B5026AC6
:10251000036A23F010030362436884690D6824F49E
:10252000E64444EA05248D6822F0200242EA0512BE
:102530000F4D104EA84201D0B04206D1CF6822F014
:10254000800242EA071222F04002A84201D0B042C3
:1025500007D14D6923F4406343EA85038D6943EA5B
:10256000850343608461496881630262F0BD0000B5
:10257000002C014000340140F0B5026A036A23F4E4
:10258000807303624368C46922F4007224F0730507
:102590000C68124E2C438D6842EA05220E4DA8426B
:1025A00001D0B04206D1CF6822F4006242EA07228D
:1025B00022F48062A84201D0B04207D14D6923F4D1
:1025C000405343EA05138D6943EA05134360C46130
:1025D0004968C1630262F0BD002C01400034014033
:1025E00030B5046A026A22F4805202624268C3690A
:1025F0000D6823F4E64343EA05238D6824F4005470
:1026000044EA0534084DA84202D0084DA84204D13E
:102610004D6922F4804242EA85124260C3614968F2
:102620000164046230BD0000002C01400034014010
:1026300010B5036A046A24F001040462846924F07A
:10264000F00444EA021423F00A020A43846102629D
:1026500010BD10B5036A046A24F010040462846992
:1026600023F0A00324F4704444EA023243EA011147
:102670008261016210BD10B5406A0021C185C1842C
:10268000FFF726F810BD01680C3151E8002F22F445
:10269000907241E80023002BF5D10168143151E814
:1026A000002F22F0010241E80023002BF5D1016B3D
:1026B000012909D101680C3151E8002F22F01002E4
:1026C00041E80023002BF5D1202180F842100021A1
:1026D0000163704708B590F84210222901D002200A
:1026E00008BD82684FF480539A4201D1016921B13B
:1026F000816A9A421BD04AB10AE00268816A526834
:10270000C2F308020A80816A891C08E0026972B17A
:102710000268526802F07F020A70816A491C816275
:10272000C18D491E0904090CC18503D01BE0026854
:102730005268F1E70168CA6822F02002CA600168A5
:10274000CA6822F48072CA6001684A6922F00102F4
:102750004A61202180F8421000214163026B012A66
:1027600003D0FFF705FA002008BD016301680C31B2
:1027700051E8002F22F0100241E80023002BF5D190
:1027800001680A68D20602D50A6849680091818DFD
:10279000FEF79DFFE7E7000070B504460068016999
:1027A000E26821F44051114301612169A0680843A6
:1027B000616908432168CA6841F20C639A43024385
:1027C000CA6020684169A26921F4407111434161E6
:1027D0001E492068884202D1FEF724FA01E0FEF784
:1027E00011FA00EBC00101EB001260686421800067
:1027F000B2FBF0F3B3FBF1F36FF018067343B2FBD7
:10280000F0F5B2FBF0F605EB8305322303EB05157B
:10281000B5FBF1F5B6FBF1F605F0F00505EB061595
:10282000B2FBF0F6B2FBF0F0B0FBF1F06FF0180283
:10283000504306EB800003EB0010B0FBF1F0216881
:1028400000F00F002844886070BD0000003801408F
:1028500081628285C28500214164222180F8421074
:10286000016921B10168CA6842F48072CA600168D6
:102870004A6942F001024A610068C16841F02001E2
:10288000C160002070472DE9F041984617460E467A
:102890000446069D27E0681C25D02DB1FEF77EF882
:1028A000A0EB0800A8421ED920680C3050E8001F99
:1028B00021F4D07140E80012002AF5D120681430CC
:1028C00050E8001F21F0010140E80012002AF5D174
:1028D000202084F8410084F84200002084F8400061
:1028E0000320BDE8F0812068006836EA000004D0CB
:1028F0000020B842CFD00020F3E70120F9E7000024
:102900000148FEF7E7BE0000900100200148FEF7F5
:10291000E1BE0000D80100200148FEF7DBBE000048
:1029200020020020FEE700000FB4054B10B503A9FC
:10293000044A029800F040F810BC5DF814FB000057
:10294000352B0008980000200FB41CB5024600206B
:1029500007AC00290BD0491ECDE90021054B6A4682
:102960002146069800F028F8009A002111701CBC3E
:102970005DF814FB0D2B00080907090E002804DB85
:1029800000F1E02080F80014704700F00F0000F123
:10299000E02080F8141D704702E008C8121F08C12B
:1029A000002AFAD170477047002001E001C1121FD0
:1029B000002AFBD1704700002DE9FF4F89B09B46EC
:1029C0000446002506E025280BD05A460B9990476F
:1029D000641C6D1C20780028F5D10DB02846BDE898
:1029E000F08F0027B8460122474900E0074314F85A
:1029F000013F203B02FA03F00842F7D120782E284D
:102A000019D114F8010F47F004072A280ED06FF0EF
:102A10002F022078A0F1300109290CD808EB880199
:102A200002EB410100EB0108641CF2E70A98641C08
:102A300050F8048B0A9020780028CED0642808D063
:102A4000692806D075281ED05A460B9990476D1CF0
:102A500058E00A994FF00A0901C90A91002802DAE0
:102A600040422D2102E0390504D52B218DF820109C
:102A7000012103E0F90704D02021F7E78A4608AED8
:102A80000DE00021FAE70A994FF00A0901C90A91FD
:102A9000F7E74946FDF7D3FC303106F8011D002861
:102AA000F7D1ADEB060000F12009780701D44FF013
:102AB0000108C84502DDA8EB090000E000208046BF
:102AC000002706E008A85A46C05D0B9990476D1C88
:102AD0007F1C5745F6DB04E030205A460B9990479F
:102AE0006D1CB8F10001A8F10108F5DC05E016F84D
:102AF000010B5A460B9990476D1CB9F10001A9F1E1
:102B00000109F4DC641C65E7092801004A68002A11
:102B100006D00A68531C0B6010704868401E48605D
:102B2000704700004FF480710148FDF72ABF000094
:102B3000000C014038B504468DF8000069460320BA
:102B4000ABBE204638BD000070B5084D4FF4807410
:102B500021462846FDF715FF4FF4FA60FDF7E4FD26
:102B600021462846BDE87040FDF70BBF0008014034
:102B7000FDF722FFFFF7CCFAFFF70AFCFFF75EF83C
:102B8000FFF7DAF8FFF782F9FFF730F9FFF762F99C
:102B9000FFF798F9FFF7B2F901226F496F48FEF786
:102BA000D9FF6FA0FFF7E6FB6FA0FFF7E3FB6A4CCE
:102BB000714D724E0027DFF8C881DFF8C8914FF0E1
:102BC000010A641EA07801282AD1E0680028F9D003
:102BD0002978307800F02EF900F0D6F898F8001037
:102BE00099F8000000F026F900F000F900F0F0F884
:102BF000FFF7AAFF13E0E06890B16068A0B198F811
:102C0000001099F8000000F015F900F0EFF800F05E
:102C1000DFF8FFF799FFA068401CC4E90170E76086
:102C2000A0780228E7D025E0A06828B1012803D0C9
:102C3000022801D00328F3D12978307800F0FAF87F
:102C400000F0A2F8C4F804A0EAE7E06890B1606878
:102C5000A0B198F8001099F8000000F0EBF800F02F
:102C6000C5F800F0B5F8FFF76FFFA068401CC4E995
:102C70000170E760A0780328E7D025E0A06828B1BC
:102C8000012803D0022801D00328F3D12978307815
:102C900000F0D0F800F078F8C4F804A0EAE7E068A3
:102CA00090B16068A0B198F8001099F8000000F0A9
:102CB000C1F800F09BF800F08BF8FFF745FFA06823
:102CC000401CC4E90170E760A0780428E7D029E03F
:102CD000A06848B1012807D0022805D0032803D0F6
:102CE000042801D00528EFD12978307800F0A2F827
:102CF00000F04AF8C4F804A0E6E7E06890B1606824
:102D0000A8B198F8001099F8000000F093F800F0CE
:102D10006DF800F05DF8FFF717FFA068401CC4E9EC
:102D20000170E760A07805287FF44CAFE5E7A06864
:102D300048B1012807D0022805D0032803D0042871
:102D400001D00528EED12978307800F073F800F032
:102D50001BF8C4F804A0E5E77900002090010020EA
:102D600024780D0A000000004739322058305930CD
:102D70005A300D0A0000000004000020030000206B
:102D8000020000200100002010B508A0FFF7F2FAB1
:102D9000FFF7C8FE4FF4FA70FDF7C6FC07A0FFF777
:102DA000E9FA0A490120087010BD000047303120BF
:102DB0005A37204631353030300D0A004730312047
:102DC0005A31204631353030300D0A000C000020D9
:102DD00001A0FFF7CFBA00004730312058305930FA
:102DE0005A30204631353030300D0A0010B508A079
:102DF000FFF7C0FAFFF796FE4FF4FA70FDF794FC68
:102E000007A0FFF7B7FA0A490120087010BD0000BB
:102E1000473031205A35204631353030300D0A00E8
:102E2000473031205A31204631353030300D0A00DC
:102E30000C00002070B50C465E38FDF7D0FA144A3D
:102E4000144BFDF75AFA0022134BFDF7AFF9FDF7CB
:102E5000D7FA124E05B2A4F159007580FDF7BFFAFA
:102E60000F4A104BFDF749FA00220F4BFDF79EF970
:102E7000FDF7C6FA01B2B180284600F017F8B01D80
:102E8000FFF778FABDE870404FF4FA60FDF74CBCEC
:102E900062105839B4C8E63F000043400C000020DF
:102EA0000AD7A3703D0AE73F0000524008B500F57D
:102EB000C3320B4B9F329A4205D20A4A914202DB3F
:102EC0005A10914204DDBDE8084007A0FFF72CBD71
:102ED000034600910DA264211248FFF735FD08BD9D
:102EE0003F0D03006179FEFF4572726F723A205800
:102EF000206F7220592076616C7565206F75742083
:102F00006F662072616E67652E0A000047303120BF
:102F10005825645925645A304631353030300D0A11
:102F2000000000001200002000000000000000006F
:102F30000000000000000000000000F80000000099
:102F4000000000333000000000100C06100C0600DA
:102F5000000000000000000040C07840C078400041
:102F6000043F04043F040400007088FC08300000A3
:102F7000001820FF211E0000F008F000E0180000FB
:102F800000211C031E211E0000F0088870000000B4
:102F90001E2123241927211010160E000000000006
:102FA0000000000000000000000000E01804020023
:102FB000000000071820400000020418E000000094
:102FC0000040201807000000404080F08040400092
:102FD0000202010F01020200000000F000000000E8
:102FE0000101011F010101000000000000000000BC
:102FF00080B0700000000000000000000000000031
:1030000000010101010101010000000000000000B9
:103010000030300000000000000000008060180454
:10302000006018060100000000E010080810E00031
:10303000000F102020100F00001010F800000000FA
:103040000020203F20200000007008080888700041
:1030500000302824222130000030088888483000C1
:103060000018202020110E000000C02010F80000E1
:1030700000070424243F240000F80888880808007A
:103080000019212020110E0000E01088881800008F
:10309000000F112020110E0000380808C838080061
:1030A0000000003F000000000070880808887000E1
:1030B000001C222121221C0000E010080810E00062
:1030C0000000312222110F00000000C0C0000000EB
:1030D0000000003030000000000000800000000010
:1030E0000000806000000000000080402010080008
:1030F00000010204081020004040404040404000D1
:1031000004040404040404000008102040800000AB
:103110000020100804020100007048080808F000B0
:103120000000003036010000C030C828E810E00080
:103130000718272423140B000000C038E00000000B
:10314000203C23020227382008F888888870000075
:10315000203F202020110E00C03008080808380049
:10316000071820202010080008F808080810E000C0
:10317000203F202020100F0008F88888E808100061
:10318000203F20202320180008F88888E808100035
:10319000203F200003000000C0300808083800006D
:1031A00007182020221E020008F808000008F8086E
:1031B000203F210101213F20000808F808080000F5
:1031C0000020203F2020000000000808F808080028
:1031D000C08080807F00000008F888C028180800A0
:1031E000203F20012638200008F8080000000000D9
:1031F000203F20202020300008F8F800F8F80800D0
:10320000203F003F003F200008F830C00008F808C9
:10321000203F200007183F00E01008080810E000D9
:103220000F10202020100F0008F808080808F000F0
:10323000203F210101010000E01008080810E00013
:103240000F18242438504F0008F8888888887000A8
:10325000203F2000030C3020007088080808380048
:103260000038202121221C00180808F8080818003E
:103270000000203F2000000008F808000008F808BF
:10328000001F202020201F000878880000C8380870
:10329000000007380E010000F80800F80008F800E8
:1032A000033C0700073C0300081868808068180882
:1032B00020302C03032C30200838C800C838080000
:1032C0000000203F2000000010080808C83808004F
:1032D0002038262120201800000000FE02020200F3
:1032E0000000007F40404000000C30C000000000A3
:1032F000000000010638C00000020202FE000000CB
:10330000004040407F000000000004020202040070
:1033100000000000000000000000000000000000AD
:103320008080808080808080000202040000000095
:10333000000000000000000000008080808000008D
:103340000019242222223F2008F80080800000007B
:10335000003F112020110E0000000080808000003E
:10336000000E112020201100000000808088F8004D
:10337000000E112020103F2000008080808000007F
:10338000001F222222221300008080F088888818E3
:103390000020203F202000000000808080808000EE
:1033A000006B94949493600008F800808080000083
:1033B000203F210000203F2000809898000000005E
:1033C0000020203F2020000000000080989800008E
:1033D00000C08080807F000008F8000080808000AE
:1033E000203F24022D302000000808F800000000D3
:1033F0000020203F2020000080808080808080008E
:10340000203F20003F20003F80800080808000001F
:10341000203F210000203F200000808080800000AD
:10342000001F202020201F008080008080000000DE
:1034300080FFA12020110E0000000080808080000D
:10344000000E112020A0FF808080800080808000FE
:1034500020203F212000010000008080808080002B
:103460000033242424241900008080E080800000A0
:103470000000001F202000008080000000808000ED
:10348000001F202020103F2080808000008080804E
:1034900000010E30080601008080008000808080DE
:1034A0000F300C030C300F00008080008080800003
:1034B0000020312E0E31200080808000008080802E
:1034C00080818E70180601000080808080808000DE
:1034D0000021302C2221300000000000807C0202FC
:1034E00000000000003F404000000000FF0000001E
:1034F00000000000FF0000000002027C80000000CD
:103500000040403F000000000006010102020404E8
:10351000000000000000000001020203040506078D
:1035200008090A0B0C0D0E0F10100000000000001F
:103530000000010203040607080900000000010260
:103540000304000064350008000000209C00000017
:1035500098290008003600089C000020CC050000D7
:10356000A829000800000000000000000000000082
:1035700001000000000047303120583059305A30E7
:103580004631353030300D0A0000000000000000E8
:10359000000000000000000000000000000000002B
:1035A000000000000000000000000000000000001B
:1035B000000000000000000000000000000000000B
:1035C00000000000000000000000000000000000FB
:1035D00000000000000000000000000000000000EB
:1035E00000000000000000000000000001000000DA
:1035F00010000000000000000024F40000000000A3
:0400000508000131BD
:00000001FF
